:020000040800F2
:1000000000500020C50E0008C30E0008C10E0008F5
:10001000C10E0008C10E0008C10E0008000000005B
:10002000000000000000000000000000C30E0008F7
:10003000C30E000800000000C30E0008C30E000835
:10004000C10E0008C10E0008C10E0008C10E000854
:10005000C10E0008C10E0008C10E0008C10E000844
:10006000C10E0008C10E0008C10E0008C10E000834
:10007000C10E0008C10E0008C10E0008C10E000824
:10008000C10E0008C10E0008C10E0008C10E000814
:10009000B1030008C10E0008C10E0008C10E00081F
:1000A000C10E0008C10E0008C10E0008C10E0008F4
:1000B000C10E0008C10E0008C10E0008C10E0008E4
:1000C000C10E0008C10E0008C10E0008C10E0008D4
:1000D000C10E0008ED030008C10E0008C10E0008A3
:1000E000C10E0008C10E0008C10E0008C10E0008B4
:1000F000C10E0008C10E0008C10E0008C10E0008A4
:10010000C10E0008C10E0008C10E0008C10E000893
:10011000C10E0008C10E0008C10E0008C10E000883
:10012000C10E0008C10E0008C10E0008C10E000873
:10013000C10E0008C10E0008C10E0008C10E000863
:10014000C10E0008C10E0008C10E0008C10E000853
:100150004FF4003382B00193019B13B1019B013B2B
:10016000F9E702B0704700001FB50DF10F030193CE
:100170000123009300238DF80F001A4640F2DE7130
:10018000064800F06DFB064B1B7823B19DF80F105D
:10019000044800F079FE05B05DF804FB00640040FF
:1001A000080400200038014070B5334D04462B7818
:1001B000032B13D8DFE803F0021322472F4B1B78E1
:1001C00013B10378AA2B04D02D4B22681B689A42E6
:1001D00004D15320FFF7C8FF01232B7070BD0278B4
:1001E000284B50201A70022300222B70264B1A60D5
:1001F000FFF7BAFFBDE8704000F000BC224E016876
:100200003368224A42F82310991C31604168013357
:1002100042F82310006800F0F9FB606800F0F6FB7C
:100220001B4B18603368B3F5807F06D1032343204E
:100230002B70BDE87040FFF797BF104B1B78002B69
:10024000CCD15020F5E700220F4B1A6000F0D6FB0E
:100250000F4B22681B689A4209D10A4A1378013B66
:10026000DBB213700BB90523B7E70423B5E74520CC
:10027000FFF77AFF0223B0E70904002008040020FA
:10028000F0F7FF1F1C0400201404002008000020C9
:100290001804002070B5024604464FF0FF3300F505
:1002A000806152F8040B914203EA0003F9D1013353
:1002B00002D0204600F004FC0025054E601956F8D7
:1002C000041B043500F050FCB5F5806FF6D170BD0D
:1002D000080000207FB500F0C5F800F093F940F267
:1002E000DD7000F00FF900F05DF9002343F23312E6
:1002F000CDE90223274A40F2DE71126826480392B4
:1003000002AA01920822254C00921A4600F0A8FA8F
:100310003221234800F0C8FDFFF71AFF2378012B94
:1003200005D02378022B02D02378042B1AD100F0B9
:1003300001FC02261B4D2378052B0ED02378042BBD
:1003400008D12846FFF7A6FF502005F580652670E6
:10035000FFF70AFF00F096FCEDE72846FFF79AFF4B
:1003600000F0F4FB2378052B02D14420FFF7FCFEBC
:10037000FFF7EEFE00F00AF900F03AF900F0B8F8E5
:10038000094A0849094B1B6811609847002004B0CE
:1003900070BD00BFF0F7FF1F00640040090400209B
:1003A000003801400010000808ED00E004100008CB
:1003B000002110B58AB006AB03930DF11B03029325
:1003C0000DF11A0308AC01930DF1190301220591F7
:1003D0000093049407AB044800F0B9FA2046FFF7F5
:1003E000E3FE0AB010BD00BF0064004007B5184826
:1003F00000F05EFD0122174BC0B21A70164B8DF84B
:1004000007001B78022BDAB20AD004D9032A15D0D0
:1004100003B05DF804FB0DF10700FFF7C5FEF7E739
:100420000E490A78531CDBB20B700D49082B885417
:10043000EED10022094B0A481A70EEE707490A7804
:10044000531CDBB20B700649042B8854F0E700BF45
:100450000038014008040020090400200A0400209C
:100460000B04002008B5042000F0B2FC002000F0CE
:10047000B9FC002000F04CFC002000F041FC022000
:1004800000F09CFC062000F043FC164B164A40F29C
:1004900002301360154A136000F0AEFC40F20330E6
:1004A00000F0AAFC4FF4417000F0A6FC40F2862058
:1004B00000F0A2FC40F2993000F09EFC40F20E30B9
:1004C00000F09AFC4FF4407000F096FC062000F01B
:1004D00017FC4FF4FA6000F0A3FBBDE8084000F001
:1004E0008FBB00BF00366E0100000020040000201A
:1004F00008B5002000F062FCBDE80840002000F0D4
:1005000031BC000070B51F4C8AB005464FF4006343
:1005100002222046002100F033FB20464FF4006108
:1005200000F068FB20464FF4805302220321002490
:1005300000F026FB0623CDE905434FF4A023124E1D
:100540002146CDE90343012223463046CDE9074445
:10055000CDE90144009400F091F80123690122469D
:100560002046CDE9014389B22346009400F064F9A6
:10057000142000F0EFFC022130460AB0BDE87040C4
:1005800000F06AB9000801400064004008B5044862
:1005900000F068F8BDE80840142000F0E9BC00BF96
:1005A0000064004010B5104C4FF400730222032188
:1005B0000E4800F0E5FA20464FF4E13100F03CFC33
:1005C0002046082100F04CFC0C21204600F051FC94
:1005D000204600F064FC204600F051FCBDE81040CD
:1005E000252000F0B7BC00BF00380140000C0140DE
:1005F00008B5252000F0BCFCBDE808404FF4C770EA
:1006000000F008BC38B500F015FA154C142104446C
:10061000A402204600F000FA054600214FF00070C9
:1006200000F0DEFA236DAB4212D104F150052068D0
:1006300070B1A17969B90222A38800F0A1FAE37927
:10064000A188206843B100F0D5FA0834AC42EED15D
:1006500038BD00220321EFE700F0CEFAF5E700BF36
:10066000FDFF4100044B98420CBF40F2192040F2BC
:100670001A2000F0CFBB00BF006400402DE9F34119
:100680000468884624F0020404600468964644F036
:10069000010404604FF6FF749DF820C09DF82410FB
:1006A0009DF828209DF83C609DF840700194019CC5
:1006B000051D013C019414B14468E407F7D52C688A
:1006C000E4076ED50024C4610468B8F1000F4FD070
:1006D00044F0800404600468BEF1000F4BD044F085
:1006E00040040460002B49D0036843F020030360FA
:1006F0000368BCF1000F45D043F0100303600368AA
:10070000002942D043F0080303600368002A3FD069
:1007100043F004030360C369002F3CD043F000435F
:10072000C361C369002E39D043F08043C3610E9B7F
:100730000D99013BC3F309030B430C99C2690B43A9
:100740000B990B431343C361036823F00103036058
:100750004FF6FF730193019B013B019313B12B688B
:10076000DB07F8D4286800F0010002B0BDE8F08192
:1007700024F08004AEE724F04004B2E7036823F0DD
:100780002003B4E723F01003B8E723F00803BBE726
:1007900023F00403BEE723F00043C1E723F08043C6
:1007A000C4E70120E1E70000F0B501241E4D9646A4
:1007B0001A462B689DF81C7043F001032B60EB690F
:1007C000844023EA04031C352B60E643174B09B32E
:1007D00019682143196016490B68BEF1000F1CD03F
:1007E000234300F1006000F6C8400B60C000059B89
:1007F0000260069A43600F4B8AB11A6822431A605E
:1008000017B12B681C432C60074A136823F00103BF
:100810001360F0BD19683140DCE73340E1E71A6846
:1008200016401E60ECE700BF006600400C6600400A
:10083000046600401466004030B4BDF808409DF8DE
:10084000105044EA0344049542EA01430294012211
:1008500030BC0021FFF7A8BF43690B4343617047D9
:100860002DE9F041804680689DF818E04501079E1B
:100870002AD4D8F8080004012AD4D8F80800C00007
:1008800050D54FF4D075022005EB080422B3C900FF
:1008900041F0040145F808101BB1236843F002033E
:1008A0002360636823F00F03636062680EF00F0338
:1008B000134363600EF1FF33072B2AD8DFE803F000
:1008C0002623201B1815120E4FF4C0750020DBE7FD
:1008D0004FF4C8750120D7E74905DBE70027F37916
:1008E00063F31F67B37963F31747737963F30F27D4
:1008F000337963F307074FF0000CF37863F31F6C51
:10090000B37863F3174C737863F30F2C337863F386
:10091000070CC4F808C0E760236843F001032360B4
:10092000BDE8F0814FF0FF30FAE721B9C36843F02A
:100930002003C3607047036943F0200303617047DD
:1009400019B9C06800F0030070470069FAE72DE9A3
:10095000F347DDF828A00446DDE90E568846FFF788
:10096000EFFF4FF4E07181464FF4D870CDE90001FC
:1009700002A901EB880151F8081C6058671810F0B3
:10098000040015BF01208AF800008AF800006058B2
:1009900016BF6058400DC008186061580B9BC1F32A
:1009A0004001197079680C9B090A197079680D9BD0
:1009B00001F00F01197016B17B681B0C3380BE6803
:1009C000FB68C6F307216970C6F30741A970C3F33A
:1009D00007212E702B71C6F307666971C3F30741B7
:1009E000C3F30763EE70A971EB711AB1414620465B
:1009F000FFF79BFF484602B0BDE8F087024A136844
:100A000043F001031360704708300240014B186047
:100A10001868704700300240002310B5044A8B422A
:100A200001DB106810BD50F8234001331460F6E775
:100A300000300240014B1888704700BFE0F7FF1FED
:100A4000064B10B51C68FFF7F5FFB0F5007F82BFBD
:100A5000034B1868044304F0350010BD0C2002401D
:100A60004C20024038B504460D4600F077F8FFF7F9
:100A7000E1FFB0F5007F18D90E4B9C4215D90E4A04
:100A8000136843F001031360258000F067F8FFF757
:100A9000D1FFB0F5007F0AD9064B9C4207D9064A20
:100AA000136823F00103136038BD044AE8E7034AE2
:100AB000F6E700BFFFFF0708502002401020024069
:100AC00010B5044600F04AF8FFF7B4FFB0F5007F18
:100AD0001DD9134B9C421AD9124B1A6842F00202DC
:100AE0001A60114A14601A6842F040021A6000F05D
:100AF00035F8FFF79FFFB0F5007F0FD9084B9C42F8
:100B00000CD9084A136823F00203136010BD074B89
:100B10001A6842F002021A60054AE3E7034AF1E765
:100B2000FFFF0708502002405420024010200240DE
:100B300014200240034B044A1A6002F188321A6002
:100B4000704700BF0420024023016745024A136832
:100B500043F08003136070471020024008B5FFF790
:100B60006FFFC307FBD408BD38B505460C4689B2F4
:100B7000FFF778FF210CA81CBDE83840FFF772BFD3
:100B80002DE9F0414FF00F0C00250768466843FA45
:100B900005F4E4071CD5072D94BFBE46B646ACB29B
:100BA0004FEA84048ABF203CA4B2A4B20CFA04F831
:100BB0002EEA080804F1020E02FA0EFE01FA04F40D
:100BC0004EEA040444EA0804072D94BF274626464B
:100BD0000135102DDBD107604660BDE8F0810000D3
:100BE000034A136823F0E0630B4303431360704729
:100BF0000400014001617047090401617047000071
:100C00004CF6CC42014B1A60704700BF00300040E8
:100C1000024B1868C0F34000704700BF0C30004022
:100C2000C000012808B538BF01200023411E5FEA3B
:100C3000113CDAB203F1010319D1062A84BF40F650
:100C4000FF7106220B480368DB07FCD445F25550C0
:100C5000094B1860094802601A46FFF7D9FF0028BF
:100C6000FBD145F255531360054B196008BD400890
:100C7000DCE700BF0C300040003000400430004092
:100C8000083000404AF6AA22014B1A60704700BFA4
:100C900000300040024A136843F0807313607047CD
:100CA00000100240062822D8DFE800F004090E13E5
:100CB000181D1F000F4B1868C0F3406070470D4BA4
:100CC0001868C0F3C06070470A4B1868C0F34070E2
:100CD0007047084B1868C0F340407047054B1868D0
:100CE000C0F340007047044BF9E7044BF7E70020DE
:100CF000704700BF00100240201002402410024044
:100D0000024608B51046FFF7CDFF0028FAD008BD0F
:100D100006280CD8DFE800F004060C11161B1D0095
:100D2000FFF7B8BF0C4A136843F080631360704745
:100D3000094A136843F08053F8E7074A136843F4FD
:100D40008033F3E7044A136843F00103EEE7034AF4
:100D5000F9E7034AF7E700BF001002402010024005
:100D60002410024006280AD8DFE800F0040A0F1415
:100D7000191E20000E4A136823F080731360704719
:100D80000B4A136823F08063F8E7094A136823F0DD
:100D90008053F3E7064A136823F48033EEE7044AEE
:100DA000136823F00103E9E7024AF9E7024AF7E78B
:100DB000001002402010024024100240034A136831
:100DC00023F0030303431360704700BF0410024085
:100DD000034A136823F4701343EA80431360704797
:100DE00004100240034A136823F4803343EA0043AB
:100DF00013607047041002400122430903F180434D
:100E000003F50433196800F01F0002FA00F00843EC
:100E1000186070470122430903F1804303F504334E
:100E2000196800F01F0002FA00F0014319601A6807
:100E300022EA000018607047064A074B90421B6880
:100E400004BF064B1B6803EB5103B3FBF1F1816058
:100E5000704700BF0038014000000020040000205F
:100E6000C36808290CBF23F4805343F48053C36044
:100E70007047C36823F00C030B43C3607047C3681B
:100E800043F40053C360704738B504460D4600F084
:100E900013F829462046BDE8384000F005B8C3687D
:100EA00043F02003C3607047C1F3080141607047FD
:100EB0004068C0F30800704703681B06FCD5704704
:100EC000FEE7704738B5184A184B19498B4217D3BB
:100ED0000021184A934218D3174A184C1368184D2A
:100EE00043F400731360AC4212D3164C164DAC425F
:100EF00012D3FFF7EFF9154C154DAC4210D338BDA6
:100F000052F8040B43F8040BE0E743F8041BE1E755
:100F100054F8043B9847E6E754F8043B9847E6E763
:100F200054F8043B9847E8E7880F000800000020C9
:100F3000080000202004002014ED00E0880F0008C5
:100F4000880F0008880F0008880F0008880F000825
:100F5000880F0008012243099B0003F1604300F061
:100F60001F0003F5614302FA00F0186070470000AB
:100F70000123420900F01F0003FA00F0014B43F87F
:080F80002200704780E100E04F
:080F880000127A0000127A0049
:0400000508000EC51C
:00000001FF
